{
  "_format": "hh-sol-artifact-1",
  "contractName": "OInariV2",
  "sourceName": "contracts/OInariV2.sol",
  "abi": [
    {
      "inputs": [],
      "stateMutability": "nonpayable",
      "type": "constructor"
    },
    {
      "anonymous": false,
      "inputs": [
        {
          "indexed": true,
          "internalType": "address",
          "name": "owner",
          "type": "address"
        },
        {
          "indexed": true,
          "internalType": "address",
          "name": "approved",
          "type": "address"
        },
        {
          "indexed": true,
          "internalType": "uint256",
          "name": "tokenId",
          "type": "uint256"
        }
      ],
      "name": "Approval",
      "type": "event"
    },
    {
      "anonymous": false,
      "inputs": [
        {
          "indexed": true,
          "internalType": "address",
          "name": "owner",
          "type": "address"
        },
        {
          "indexed": true,
          "internalType": "address",
          "name": "operator",
          "type": "address"
        },
        {
          "indexed": false,
          "internalType": "bool",
          "name": "approved",
          "type": "bool"
        }
      ],
      "name": "ApprovalForAll",
      "type": "event"
    },
    {
      "anonymous": false,
      "inputs": [
        {
          "indexed": true,
          "internalType": "address",
          "name": "previousOwner",
          "type": "address"
        },
        {
          "indexed": true,
          "internalType": "address",
          "name": "newOwner",
          "type": "address"
        }
      ],
      "name": "OwnershipTransferred",
      "type": "event"
    },
    {
      "anonymous": false,
      "inputs": [
        {
          "indexed": true,
          "internalType": "address",
          "name": "from",
          "type": "address"
        },
        {
          "indexed": true,
          "internalType": "address",
          "name": "to",
          "type": "address"
        },
        {
          "indexed": true,
          "internalType": "uint256",
          "name": "tokenId",
          "type": "uint256"
        }
      ],
      "name": "Transfer",
      "type": "event"
    },
    {
      "inputs": [
        {
          "internalType": "address",
          "name": "to",
          "type": "address"
        },
        {
          "internalType": "uint256",
          "name": "tokenId",
          "type": "uint256"
        }
      ],
      "name": "approve",
      "outputs": [],
      "stateMutability": "nonpayable",
      "type": "function"
    },
    {
      "inputs": [
        {
          "internalType": "address",
          "name": "owner",
          "type": "address"
        }
      ],
      "name": "balanceOf",
      "outputs": [
        {
          "internalType": "uint256",
          "name": "",
          "type": "uint256"
        }
      ],
      "stateMutability": "view",
      "type": "function"
    },
    {
      "inputs": [
        {
          "internalType": "uint256",
          "name": "tokenId",
          "type": "uint256"
        }
      ],
      "name": "getApproved",
      "outputs": [
        {
          "internalType": "address",
          "name": "",
          "type": "address"
        }
      ],
      "stateMutability": "view",
      "type": "function"
    },
    {
      "inputs": [],
      "name": "hiddenMetadataUri",
      "outputs": [
        {
          "internalType": "string",
          "name": "",
          "type": "string"
        }
      ],
      "stateMutability": "view",
      "type": "function"
    },
    {
      "inputs": [
        {
          "internalType": "address",
          "name": "owner",
          "type": "address"
        },
        {
          "internalType": "address",
          "name": "operator",
          "type": "address"
        }
      ],
      "name": "isApprovedForAll",
      "outputs": [
        {
          "internalType": "bool",
          "name": "",
          "type": "bool"
        }
      ],
      "stateMutability": "view",
      "type": "function"
    },
    {
      "inputs": [],
      "name": "maxMintAmountPerTx",
      "outputs": [
        {
          "internalType": "uint256",
          "name": "",
          "type": "uint256"
        }
      ],
      "stateMutability": "view",
      "type": "function"
    },
    {
      "inputs": [],
      "name": "maxPerWallet",
      "outputs": [
        {
          "internalType": "uint256",
          "name": "",
          "type": "uint256"
        }
      ],
      "stateMutability": "view",
      "type": "function"
    },
    {
      "inputs": [],
      "name": "maxSupply",
      "outputs": [
        {
          "internalType": "uint256",
          "name": "",
          "type": "uint256"
        }
      ],
      "stateMutability": "view",
      "type": "function"
    },
    {
      "inputs": [
        {
          "internalType": "uint256",
          "name": "_mintAmount",
          "type": "uint256"
        }
      ],
      "name": "mint",
      "outputs": [],
      "stateMutability": "payable",
      "type": "function"
    },
    {
      "inputs": [
        {
          "internalType": "uint256",
          "name": "_mintAmount",
          "type": "uint256"
        },
        {
          "internalType": "address",
          "name": "_receiver",
          "type": "address"
        }
      ],
      "name": "mintForAddress",
      "outputs": [],
      "stateMutability": "nonpayable",
      "type": "function"
    },
    {
      "inputs": [],
      "name": "mintPaused",
      "outputs": [
        {
          "internalType": "bool",
          "name": "",
          "type": "bool"
        }
      ],
      "stateMutability": "view",
      "type": "function"
    },
    {
      "inputs": [],
      "name": "mintPrice",
      "outputs": [
        {
          "internalType": "uint256",
          "name": "",
          "type": "uint256"
        }
      ],
      "stateMutability": "view",
      "type": "function"
    },
    {
      "inputs": [],
      "name": "mintRevealed",
      "outputs": [
        {
          "internalType": "bool",
          "name": "",
          "type": "bool"
        }
      ],
      "stateMutability": "view",
      "type": "function"
    },
    {
      "inputs": [],
      "name": "name",
      "outputs": [
        {
          "internalType": "string",
          "name": "",
          "type": "string"
        }
      ],
      "stateMutability": "view",
      "type": "function"
    },
    {
      "inputs": [],
      "name": "owner",
      "outputs": [
        {
          "internalType": "address",
          "name": "",
          "type": "address"
        }
      ],
      "stateMutability": "view",
      "type": "function"
    },
    {
      "inputs": [
        {
          "internalType": "uint256",
          "name": "tokenId",
          "type": "uint256"
        }
      ],
      "name": "ownerOf",
      "outputs": [
        {
          "internalType": "address",
          "name": "",
          "type": "address"
        }
      ],
      "stateMutability": "view",
      "type": "function"
    },
    {
      "inputs": [],
      "name": "renounceOwnership",
      "outputs": [],
      "stateMutability": "nonpayable",
      "type": "function"
    },
    {
      "inputs": [
        {
          "internalType": "address",
          "name": "from",
          "type": "address"
        },
        {
          "internalType": "address",
          "name": "to",
          "type": "address"
        },
        {
          "internalType": "uint256",
          "name": "tokenId",
          "type": "uint256"
        }
      ],
      "name": "safeTransferFrom",
      "outputs": [],
      "stateMutability": "nonpayable",
      "type": "function"
    },
    {
      "inputs": [
        {
          "internalType": "address",
          "name": "from",
          "type": "address"
        },
        {
          "internalType": "address",
          "name": "to",
          "type": "address"
        },
        {
          "internalType": "uint256",
          "name": "tokenId",
          "type": "uint256"
        },
        {
          "internalType": "bytes",
          "name": "data",
          "type": "bytes"
        }
      ],
      "name": "safeTransferFrom",
      "outputs": [],
      "stateMutability": "nonpayable",
      "type": "function"
    },
    {
      "inputs": [
        {
          "internalType": "address",
          "name": "operator",
          "type": "address"
        },
        {
          "internalType": "bool",
          "name": "approved",
          "type": "bool"
        }
      ],
      "name": "setApprovalForAll",
      "outputs": [],
      "stateMutability": "nonpayable",
      "type": "function"
    },
    {
      "inputs": [
        {
          "internalType": "string",
          "name": "_hiddenMetadataUri",
          "type": "string"
        }
      ],
      "name": "setHiddenMetadataUri",
      "outputs": [],
      "stateMutability": "nonpayable",
      "type": "function"
    },
    {
      "inputs": [
        {
          "internalType": "uint256",
          "name": "_maxMintAmountPerTx",
          "type": "uint256"
        }
      ],
      "name": "setMaxMintAmountPerTx",
      "outputs": [],
      "stateMutability": "nonpayable",
      "type": "function"
    },
    {
      "inputs": [
        {
          "internalType": "bool",
          "name": "_state",
          "type": "bool"
        }
      ],
      "name": "setRevealed",
      "outputs": [],
      "stateMutability": "nonpayable",
      "type": "function"
    },
    {
      "inputs": [
        {
          "internalType": "string",
          "name": "_uriPrefix",
          "type": "string"
        }
      ],
      "name": "setUriPrefix",
      "outputs": [],
      "stateMutability": "nonpayable",
      "type": "function"
    },
    {
      "inputs": [
        {
          "internalType": "string",
          "name": "_uriSuffix",
          "type": "string"
        }
      ],
      "name": "setUriSuffix",
      "outputs": [],
      "stateMutability": "nonpayable",
      "type": "function"
    },
    {
      "inputs": [
        {
          "internalType": "bool",
          "name": "_state",
          "type": "bool"
        }
      ],
      "name": "setmintPaused",
      "outputs": [],
      "stateMutability": "nonpayable",
      "type": "function"
    },
    {
      "inputs": [
        {
          "internalType": "uint256",
          "name": "_mintPrice",
          "type": "uint256"
        }
      ],
      "name": "setmintPrice",
      "outputs": [],
      "stateMutability": "nonpayable",
      "type": "function"
    },
    {
      "inputs": [
        {
          "internalType": "bytes4",
          "name": "interfaceId",
          "type": "bytes4"
        }
      ],
      "name": "supportsInterface",
      "outputs": [
        {
          "internalType": "bool",
          "name": "",
          "type": "bool"
        }
      ],
      "stateMutability": "view",
      "type": "function"
    },
    {
      "inputs": [],
      "name": "symbol",
      "outputs": [
        {
          "internalType": "string",
          "name": "",
          "type": "string"
        }
      ],
      "stateMutability": "view",
      "type": "function"
    },
    {
      "inputs": [
        {
          "internalType": "uint256",
          "name": "_tokenId",
          "type": "uint256"
        }
      ],
      "name": "tokenURI",
      "outputs": [
        {
          "internalType": "string",
          "name": "",
          "type": "string"
        }
      ],
      "stateMutability": "view",
      "type": "function"
    },
    {
      "inputs": [],
      "name": "totalSupply",
      "outputs": [
        {
          "internalType": "uint256",
          "name": "",
          "type": "uint256"
        }
      ],
      "stateMutability": "view",
      "type": "function"
    },
    {
      "inputs": [
        {
          "internalType": "address",
          "name": "from",
          "type": "address"
        },
        {
          "internalType": "address",
          "name": "to",
          "type": "address"
        },
        {
          "internalType": "uint256",
          "name": "tokenId",
          "type": "uint256"
        }
      ],
      "name": "transferFrom",
      "outputs": [],
      "stateMutability": "nonpayable",
      "type": "function"
    },
    {
      "inputs": [
        {
          "internalType": "address",
          "name": "newOwner",
          "type": "address"
        }
      ],
      "name": "transferOwnership",
      "outputs": [],
      "stateMutability": "nonpayable",
      "type": "function"
    },
    {
      "inputs": [],
      "name": "uriPrefix",
      "outputs": [
        {
          "internalType": "string",
          "name": "",
          "type": "string"
        }
      ],
      "stateMutability": "view",
      "type": "function"
    },
    {
      "inputs": [],
      "name": "uriSuffix",
      "outputs": [
        {
          "internalType": "string",
          "name": "",
          "type": "string"
        }
      ],
      "stateMutability": "view",
      "type": "function"
    },
    {
      "inputs": [
        {
          "internalType": "address",
          "name": "",
          "type": "address"
        }
      ],
      "name": "walletMints",
      "outputs": [
        {
          "internalType": "uint256",
          "name": "",
          "type": "uint256"
        }
      ],
      "stateMutability": "view",
      "type": "function"
    },
    {
      "inputs": [
        {
          "internalType": "address",
          "name": "_owner",
          "type": "address"
        }
      ],
      "name": "walletOfOwner",
      "outputs": [
        {
          "internalType": "uint256[]",
          "name": "",
          "type": "uint256[]"
        }
      ],
      "stateMutability": "view",
      "type": "function"
    },
    {
      "inputs": [],
      "name": "withdraw",
      "outputs": [],
      "stateMutability": "nonpayable",
      "type": "function"
    }
  ],
  "bytecode": "0x608060405260405180602001604052806000815250600990805190602001906200002b929190620003a1565b506040518060400160405280600581526020017f2e6a736f6e000000000000000000000000000000000000000000000000000000815250600a908051906020019062000079929190620003a1565b506003600c5566470de4df820000600d556064600e556003600f556001601060006101000a81548160ff0219169083151502179055506000601060016101000a81548160ff021916908315150217905550348015620000d757600080fd5b506040518060400160405280600781526020017f4f2d496e617269000000000000000000000000000000000000000000000000008152506040518060400160405280600381526020017f494e41000000000000000000000000000000000000000000000000000000000081525081600090805190602001906200015c929190620003a1565b50806001908051906020019062000175929190620003a1565b505050620001986200018c620001ec60201b60201c565b620001f460201b60201c565b6001600781905550620001e66040518060400160405280601a81526020017f697066733a2f2f5f5f4349445f5f2f68696464656e2e6a736f6e000000000000815250620002ba60201b60201c565b62000539565b600033905090565b6000600660009054906101000a900473ffffffffffffffffffffffffffffffffffffffff16905081600660006101000a81548173ffffffffffffffffffffffffffffffffffffffff021916908373ffffffffffffffffffffffffffffffffffffffff1602179055508173ffffffffffffffffffffffffffffffffffffffff168173ffffffffffffffffffffffffffffffffffffffff167f8be0079c531659141344cd1fd0a4f28419497f9722a3daafe3b4186f6b6457e060405160405180910390a35050565b620002ca620002e660201b60201c565b80600b9080519060200190620002e2929190620003a1565b5050565b620002f6620001ec60201b60201c565b73ffffffffffffffffffffffffffffffffffffffff166200031c6200037760201b60201c565b73ffffffffffffffffffffffffffffffffffffffff161462000375576040517f08c379a00000000000000000000000000000000000000000000000000000000081526004016200036c90620004b2565b60405180910390fd5b565b6000600660009054906101000a900473ffffffffffffffffffffffffffffffffffffffff16905090565b828054620003af9062000503565b90600052602060002090601f016020900481019282620003d357600085556200041f565b82601f10620003ee57805160ff19168380011785556200041f565b828001600101855582156200041f579182015b828111156200041e57825182559160200191906001019062000401565b5b5090506200042e919062000432565b5090565b5b808211156200044d57600081600090555060010162000433565b5090565b600082825260208201905092915050565b7f4f776e61626c653a2063616c6c6572206973206e6f7420746865206f776e6572600082015250565b60006200049a60208362000451565b9150620004a78262000462565b602082019050919050565b60006020820190508181036000830152620004cd816200048b565b9050919050565b7f4e487b7100000000000000000000000000000000000000000000000000000000600052602260045260246000fd5b600060028204905060018216806200051c57607f821691505b60208210811415620005335762000532620004d4565b5b50919050565b613ef280620005496000396000f3fe6080604052600436106102255760003560e01c80637e4831d311610123578063b071401b116100ab578063e0a808531161006f578063e0a80853146107d4578063e985e9c5146107fd578063efbd73f41461083a578063f0293fd314610863578063f2fde38b146108a057610225565b8063b071401b146106f1578063b488cf181461071a578063b88d4fde14610743578063c87b56dd1461076c578063d5abeb01146107a957610225565b806394354fd0116100f257806394354fd01461062b57806395d89b4114610656578063a0712d6814610681578063a22cb4651461069d578063a45ba8e7146106c657610225565b80637e4831d3146105815780637ec4a659146105ac5780638acb4aa3146105d55780638da5cb5b1461060057610225565b8063438b6300116101b15780636352211e116101755780636352211e1461049c5780636817c76c146104d957806370a0823114610504578063715018a6146105415780637474c5d91461055857610225565b8063438b6300146103b5578063453c2310146103f25780634fdd43cb1461041d5780635503a0e81461044657806362b99ad41461047157610225565b806316ba10e0116101f857806316ba10e0146102f857806318160ddd1461032157806323b872dd1461034c5780633ccfd60b1461037557806342842e0e1461038c57610225565b806301ffc9a71461022a57806306fdde0314610267578063081812fc14610292578063095ea7b3146102cf575b600080fd5b34801561023657600080fd5b50610251600480360381019061024c91906128c1565b6108c9565b60405161025e9190612909565b60405180910390f35b34801561027357600080fd5b5061027c6109ab565b60405161028991906129bd565b60405180910390f35b34801561029e57600080fd5b506102b960048036038101906102b49190612a15565b610a3d565b6040516102c69190612a83565b60405180910390f35b3480156102db57600080fd5b506102f660048036038101906102f19190612aca565b610a83565b005b34801561030457600080fd5b5061031f600480360381019061031a9190612c3f565b610b9b565b005b34801561032d57600080fd5b50610336610bbd565b6040516103439190612c97565b60405180910390f35b34801561035857600080fd5b50610373600480360381019061036e9190612cb2565b610bce565b005b34801561038157600080fd5b5061038a610c2e565b005b34801561039857600080fd5b506103b360048036038101906103ae9190612cb2565b610daf565b005b3480156103c157600080fd5b506103dc60048036038101906103d79190612d05565b610dcf565b6040516103e99190612df0565b60405180910390f35b3480156103fe57600080fd5b50610407610eda565b6040516104149190612c97565b60405180910390f35b34801561042957600080fd5b50610444600480360381019061043f9190612c3f565b610ee0565b005b34801561045257600080fd5b5061045b610f02565b60405161046891906129bd565b60405180910390f35b34801561047d57600080fd5b50610486610f90565b60405161049391906129bd565b60405180910390f35b3480156104a857600080fd5b506104c360048036038101906104be9190612a15565b61101e565b6040516104d09190612a83565b60405180910390f35b3480156104e557600080fd5b506104ee6110d0565b6040516104fb9190612c97565b60405180910390f35b34801561051057600080fd5b5061052b60048036038101906105269190612d05565b6110d6565b6040516105389190612c97565b60405180910390f35b34801561054d57600080fd5b5061055661118e565b005b34801561056457600080fd5b5061057f600480360381019061057a9190612e3e565b6111a2565b005b34801561058d57600080fd5b506105966111c7565b6040516105a39190612909565b60405180910390f35b3480156105b857600080fd5b506105d360048036038101906105ce9190612c3f565b6111da565b005b3480156105e157600080fd5b506105ea6111fc565b6040516105f79190612909565b60405180910390f35b34801561060c57600080fd5b5061061561120f565b6040516106229190612a83565b60405180910390f35b34801561063757600080fd5b50610640611239565b60405161064d9190612c97565b60405180910390f35b34801561066257600080fd5b5061066b61123f565b60405161067891906129bd565b60405180910390f35b61069b60048036038101906106969190612a15565b6112d1565b005b3480156106a957600080fd5b506106c460048036038101906106bf9190612e6b565b6114b9565b005b3480156106d257600080fd5b506106db6114cf565b6040516106e891906129bd565b60405180910390f35b3480156106fd57600080fd5b5061071860048036038101906107139190612a15565b61155d565b005b34801561072657600080fd5b50610741600480360381019061073c9190612a15565b61156f565b005b34801561074f57600080fd5b5061076a60048036038101906107659190612f4c565b611581565b005b34801561077857600080fd5b50610793600480360381019061078e9190612a15565b6115e3565b6040516107a091906129bd565b60405180910390f35b3480156107b557600080fd5b506107be61173c565b6040516107cb9190612c97565b60405180910390f35b3480156107e057600080fd5b506107fb60048036038101906107f69190612e3e565b611742565b005b34801561080957600080fd5b50610824600480360381019061081f9190612fcf565b611767565b6040516108319190612909565b60405180910390f35b34801561084657600080fd5b50610861600480360381019061085c919061300f565b6117fb565b005b34801561086f57600080fd5b5061088a60048036038101906108859190612d05565b6118bd565b6040516108979190612c97565b60405180910390f35b3480156108ac57600080fd5b506108c760048036038101906108c29190612d05565b6118d5565b005b60007f80ac58cd000000000000000000000000000000000000000000000000000000007bffffffffffffffffffffffffffffffffffffffffffffffffffffffff1916827bffffffffffffffffffffffffffffffffffffffffffffffffffffffff1916148061099457507f5b5e139f000000000000000000000000000000000000000000000000000000007bffffffffffffffffffffffffffffffffffffffffffffffffffffffff1916827bffffffffffffffffffffffffffffffffffffffffffffffffffffffff1916145b806109a457506109a382611959565b5b9050919050565b6060600080546109ba9061307e565b80601f01602080910402602001604051908101604052809291908181526020018280546109e69061307e565b8015610a335780601f10610a0857610100808354040283529160200191610a33565b820191906000526020600020905b815481529060010190602001808311610a1657829003601f168201915b5050505050905090565b6000610a48826119c3565b6004600083815260200190815260200160002060009054906101000a900473ffffffffffffffffffffffffffffffffffffffff169050919050565b6000610a8e8261101e565b90508073ffffffffffffffffffffffffffffffffffffffff168373ffffffffffffffffffffffffffffffffffffffff161415610aff576040517f08c379a0000000000000000000000000000000000000000000000000000000008152600401610af690613122565b60405180910390fd5b8073ffffffffffffffffffffffffffffffffffffffff16610b1e611a0e565b73ffffffffffffffffffffffffffffffffffffffff161480610b4d5750610b4c81610b47611a0e565b611767565b5b610b8c576040517f08c379a0000000000000000000000000000000000000000000000000000000008152600401610b83906131b4565b60405180910390fd5b610b968383611a16565b505050565b610ba3611acf565b80600a9080519060200190610bb99291906127b2565b5050565b6000610bc96008611b4d565b905090565b610bdf610bd9611a0e565b82611b5b565b610c1e576040517f08c379a0000000000000000000000000000000000000000000000000000000008152600401610c1590613246565b60405180910390fd5b610c29838383611bf0565b505050565b610c36611acf565b60026007541415610c7c576040517f08c379a0000000000000000000000000000000000000000000000000000000008152600401610c73906132b2565b60405180910390fd5b6002600781905550600073943590a42c27d08e3744202c4ae5ed55c2de240d73ffffffffffffffffffffffffffffffffffffffff166064605a47610cc09190613301565b610cca919061338a565b604051610cd6906133ec565b60006040518083038185875af1925050503d8060008114610d13576040519150601f19603f3d011682016040523d82523d6000602084013e610d18565b606091505b5050905080610d2657600080fd5b6000610d3061120f565b73ffffffffffffffffffffffffffffffffffffffff1647604051610d53906133ec565b60006040518083038185875af1925050503d8060008114610d90576040519150601f19603f3d011682016040523d82523d6000602084013e610d95565b606091505b5050905080610da357600080fd5b50506001600781905550565b610dca83838360405180602001604052806000815250611581565b505050565b60606000610ddc836110d6565b905060008167ffffffffffffffff811115610dfa57610df9612b14565b5b604051908082528060200260200182016040528015610e285781602001602082028036833780820191505090505b50905060006001905060005b8381108015610e455750600e548211155b15610ece576000610e558361101e565b90508673ffffffffffffffffffffffffffffffffffffffff168173ffffffffffffffffffffffffffffffffffffffff161415610eba5782848381518110610e9f57610e9e613401565b5b6020026020010181815250508180610eb690613430565b9250505b8280610ec590613430565b93505050610e34565b82945050505050919050565b600c5481565b610ee8611acf565b80600b9080519060200190610efe9291906127b2565b5050565b600a8054610f0f9061307e565b80601f0160208091040260200160405190810160405280929190818152602001828054610f3b9061307e565b8015610f885780601f10610f5d57610100808354040283529160200191610f88565b820191906000526020600020905b815481529060010190602001808311610f6b57829003601f168201915b505050505081565b60098054610f9d9061307e565b80601f0160208091040260200160405190810160405280929190818152602001828054610fc99061307e565b80156110165780601f10610feb57610100808354040283529160200191611016565b820191906000526020600020905b815481529060010190602001808311610ff957829003601f168201915b505050505081565b6000806002600084815260200190815260200160002060009054906101000a900473ffffffffffffffffffffffffffffffffffffffff169050600073ffffffffffffffffffffffffffffffffffffffff168173ffffffffffffffffffffffffffffffffffffffff1614156110c7576040517f08c379a00000000000000000000000000000000000000000000000000000000081526004016110be906134c5565b60405180910390fd5b80915050919050565b600d5481565b60008073ffffffffffffffffffffffffffffffffffffffff168273ffffffffffffffffffffffffffffffffffffffff161415611147576040517f08c379a000000000000000000000000000000000000000000000000000000000815260040161113e90613557565b60405180910390fd5b600360008373ffffffffffffffffffffffffffffffffffffffff1673ffffffffffffffffffffffffffffffffffffffff168152602001908152602001600020549050919050565b611196611acf565b6111a06000611e57565b565b6111aa611acf565b80601060006101000a81548160ff02191690831515021790555050565b601060009054906101000a900460ff1681565b6111e2611acf565b80600990805190602001906111f89291906127b2565b5050565b601060019054906101000a900460ff1681565b6000600660009054906101000a900473ffffffffffffffffffffffffffffffffffffffff16905090565b600f5481565b60606001805461124e9061307e565b80601f016020809104026020016040519081016040528092919081815260200182805461127a9061307e565b80156112c75780601f1061129c576101008083540402835291602001916112c7565b820191906000526020600020905b8154815290600101906020018083116112aa57829003601f168201915b5050505050905090565b806000811180156112e45750600f548111155b611323576040517f08c379a000000000000000000000000000000000000000000000000000000000815260040161131a906135c3565b60405180910390fd5b600e54816113316008611b4d565b61133b91906135e3565b111561137c576040517f08c379a000000000000000000000000000000000000000000000000000000000815260040161137390613685565b60405180910390fd5b601060009054906101000a900460ff16156113cc576040517f08c379a00000000000000000000000000000000000000000000000000000000081526004016113c3906136f1565b60405180910390fd5b81600d546113da9190613301565b34101561141c576040517f08c379a00000000000000000000000000000000000000000000000000000000081526004016114139061375d565b60405180910390fd5b600c5482601160003373ffffffffffffffffffffffffffffffffffffffff1673ffffffffffffffffffffffffffffffffffffffff1681526020019081526020016000205461146a91906135e3565b11156114ab576040517f08c379a00000000000000000000000000000000000000000000000000000000081526004016114a2906137c9565b60405180910390fd5b6114b53383611f1d565b5050565b6114cb6114c4611a0e565b8383611f5d565b5050565b600b80546114dc9061307e565b80601f01602080910402602001604051908101604052809291908181526020018280546115089061307e565b80156115555780601f1061152a57610100808354040283529160200191611555565b820191906000526020600020905b81548152906001019060200180831161153857829003601f168201915b505050505081565b611565611acf565b80600f8190555050565b611577611acf565b80600d8190555050565b61159261158c611a0e565b83611b5b565b6115d1576040517f08c379a00000000000000000000000000000000000000000000000000000000081526004016115c890613246565b60405180910390fd5b6115dd848484846120ca565b50505050565b60606115ee82612126565b61162d576040517f08c379a00000000000000000000000000000000000000000000000000000000081526004016116249061385b565b60405180910390fd5b60001515601060019054906101000a900460ff16151514156116db57600b80546116569061307e565b80601f01602080910402602001604051908101604052809291908181526020018280546116829061307e565b80156116cf5780601f106116a4576101008083540402835291602001916116cf565b820191906000526020600020905b8154815290600101906020018083116116b257829003601f168201915b50505050509050611737565b60006116e5612192565b905060008151116117055760405180602001604052806000815250611733565b8061170f84612224565b600a6040516020016117239392919061394b565b6040516020818303038152906040525b9150505b919050565b600e5481565b61174a611acf565b80601060016101000a81548160ff02191690831515021790555050565b6000600560008473ffffffffffffffffffffffffffffffffffffffff1673ffffffffffffffffffffffffffffffffffffffff16815260200190815260200160002060008373ffffffffffffffffffffffffffffffffffffffff1673ffffffffffffffffffffffffffffffffffffffff16815260200190815260200160002060009054906101000a900460ff16905092915050565b8160008111801561180e5750600f548111155b61184d576040517f08c379a0000000000000000000000000000000000000000000000000000000008152600401611844906135c3565b60405180910390fd5b600e548161185b6008611b4d565b61186591906135e3565b11156118a6576040517f08c379a000000000000000000000000000000000000000000000000000000000815260040161189d90613685565b60405180910390fd5b6118ae611acf565b6118b88284611f1d565b505050565b60116020528060005260406000206000915090505481565b6118dd611acf565b600073ffffffffffffffffffffffffffffffffffffffff168173ffffffffffffffffffffffffffffffffffffffff16141561194d576040517f08c379a0000000000000000000000000000000000000000000000000000000008152600401611944906139ee565b60405180910390fd5b61195681611e57565b50565b60007f01ffc9a7000000000000000000000000000000000000000000000000000000007bffffffffffffffffffffffffffffffffffffffffffffffffffffffff1916827bffffffffffffffffffffffffffffffffffffffffffffffffffffffff1916149050919050565b6119cc81612126565b611a0b576040517f08c379a0000000000000000000000000000000000000000000000000000000008152600401611a02906134c5565b60405180910390fd5b50565b600033905090565b816004600083815260200190815260200160002060006101000a81548173ffffffffffffffffffffffffffffffffffffffff021916908373ffffffffffffffffffffffffffffffffffffffff160217905550808273ffffffffffffffffffffffffffffffffffffffff16611a898361101e565b73ffffffffffffffffffffffffffffffffffffffff167f8c5be1e5ebec7d5bd14f71427d1e84f3dd0314c0f7b2291e5b200ac8c7c3b92560405160405180910390a45050565b611ad7611a0e565b73ffffffffffffffffffffffffffffffffffffffff16611af561120f565b73ffffffffffffffffffffffffffffffffffffffff1614611b4b576040517f08c379a0000000000000000000000000000000000000000000000000000000008152600401611b4290613a5a565b60405180910390fd5b565b600081600001549050919050565b600080611b678361101e565b90508073ffffffffffffffffffffffffffffffffffffffff168473ffffffffffffffffffffffffffffffffffffffff161480611ba95750611ba88185611767565b5b80611be757508373ffffffffffffffffffffffffffffffffffffffff16611bcf84610a3d565b73ffffffffffffffffffffffffffffffffffffffff16145b91505092915050565b8273ffffffffffffffffffffffffffffffffffffffff16611c108261101e565b73ffffffffffffffffffffffffffffffffffffffff1614611c66576040517f08c379a0000000000000000000000000000000000000000000000000000000008152600401611c5d90613aec565b60405180910390fd5b600073ffffffffffffffffffffffffffffffffffffffff168273ffffffffffffffffffffffffffffffffffffffff161415611cd6576040517f08c379a0000000000000000000000000000000000000000000000000000000008152600401611ccd90613b7e565b60405180910390fd5b611ce1838383612385565b611cec600082611a16565b6001600360008573ffffffffffffffffffffffffffffffffffffffff1673ffffffffffffffffffffffffffffffffffffffff1681526020019081526020016000206000828254611d3c9190613b9e565b925050819055506001600360008473ffffffffffffffffffffffffffffffffffffffff1673ffffffffffffffffffffffffffffffffffffffff1681526020019081526020016000206000828254611d9391906135e3565b92505081905550816002600083815260200190815260200160002060006101000a81548173ffffffffffffffffffffffffffffffffffffffff021916908373ffffffffffffffffffffffffffffffffffffffff160217905550808273ffffffffffffffffffffffffffffffffffffffff168473ffffffffffffffffffffffffffffffffffffffff167fddf252ad1be2c89b69c2b068fc378daa952ba7f163c4a11628f55a4df523b3ef60405160405180910390a4611e5283838361238a565b505050565b6000600660009054906101000a900473ffffffffffffffffffffffffffffffffffffffff16905081600660006101000a81548173ffffffffffffffffffffffffffffffffffffffff021916908373ffffffffffffffffffffffffffffffffffffffff1602179055508173ffffffffffffffffffffffffffffffffffffffff168173ffffffffffffffffffffffffffffffffffffffff167f8be0079c531659141344cd1fd0a4f28419497f9722a3daafe3b4186f6b6457e060405160405180910390a35050565b60005b81811015611f5857611f32600861238f565b611f4583611f406008611b4d565b6123a5565b8080611f5090613430565b915050611f20565b505050565b8173ffffffffffffffffffffffffffffffffffffffff168373ffffffffffffffffffffffffffffffffffffffff161415611fcc576040517f08c379a0000000000000000000000000000000000000000000000000000000008152600401611fc390613c1e565b60405180910390fd5b80600560008573ffffffffffffffffffffffffffffffffffffffff1673ffffffffffffffffffffffffffffffffffffffff16815260200190815260200160002060008473ffffffffffffffffffffffffffffffffffffffff1673ffffffffffffffffffffffffffffffffffffffff16815260200190815260200160002060006101000a81548160ff0219169083151502179055508173ffffffffffffffffffffffffffffffffffffffff168373ffffffffffffffffffffffffffffffffffffffff167f17307eab39ab6107e8899845ad3d59bd9653f200f220920489ca2b5937696c31836040516120bd9190612909565b60405180910390a3505050565b6120d5848484611bf0565b6120e1848484846123c3565b612120576040517f08c379a000000000000000000000000000000000000000000000000000000000815260040161211790613cb0565b60405180910390fd5b50505050565b60008073ffffffffffffffffffffffffffffffffffffffff166002600084815260200190815260200160002060009054906101000a900473ffffffffffffffffffffffffffffffffffffffff1673ffffffffffffffffffffffffffffffffffffffff1614159050919050565b6060600980546121a19061307e565b80601f01602080910402602001604051908101604052809291908181526020018280546121cd9061307e565b801561221a5780601f106121ef5761010080835404028352916020019161221a565b820191906000526020600020905b8154815290600101906020018083116121fd57829003601f168201915b5050505050905090565b6060600082141561226c576040518060400160405280600181526020017f30000000000000000000000000000000000000000000000000000000000000008152509050612380565b600082905060005b6000821461229e57808061228790613430565b915050600a82612297919061338a565b9150612274565b60008167ffffffffffffffff8111156122ba576122b9612b14565b5b6040519080825280601f01601f1916602001820160405280156122ec5781602001600182028036833780820191505090505b5090505b60008514612379576001826123059190613b9e565b9150600a856123149190613cd0565b603061232091906135e3565b60f81b81838151811061233657612335613401565b5b60200101907effffffffffffffffffffffffffffffffffffffffffffffffffffffffffffff1916908160001a905350600a85612372919061338a565b94506122f0565b8093505050505b919050565b505050565b505050565b6001816000016000828254019250508190555050565b6123bf82826040518060200160405280600081525061255a565b5050565b60006123e48473ffffffffffffffffffffffffffffffffffffffff166125b5565b1561254d578373ffffffffffffffffffffffffffffffffffffffff1663150b7a0261240d611a0e565b8786866040518563ffffffff1660e01b815260040161242f9493929190613d56565b602060405180830381600087803b15801561244957600080fd5b505af192505050801561247a57506040513d601f19601f820116820180604052508101906124779190613db7565b60015b6124fd573d80600081146124aa576040519150601f19603f3d011682016040523d82523d6000602084013e6124af565b606091505b506000815114156124f5576040517f08c379a00000000000000000000000000000000000000000000000000000000081526004016124ec90613cb0565b60405180910390fd5b805181602001fd5b63150b7a0260e01b7bffffffffffffffffffffffffffffffffffffffffffffffffffffffff1916817bffffffffffffffffffffffffffffffffffffffffffffffffffffffff191614915050612552565b600190505b949350505050565b61256483836125d8565b61257160008484846123c3565b6125b0576040517f08c379a00000000000000000000000000000000000000000000000000000000081526004016125a790613cb0565b60405180910390fd5b505050565b6000808273ffffffffffffffffffffffffffffffffffffffff163b119050919050565b600073ffffffffffffffffffffffffffffffffffffffff168273ffffffffffffffffffffffffffffffffffffffff161415612648576040517f08c379a000000000000000000000000000000000000000000000000000000000815260040161263f90613e30565b60405180910390fd5b61265181612126565b15612691576040517f08c379a000000000000000000000000000000000000000000000000000000000815260040161268890613e9c565b60405180910390fd5b61269d60008383612385565b6001600360008473ffffffffffffffffffffffffffffffffffffffff1673ffffffffffffffffffffffffffffffffffffffff16815260200190815260200160002060008282546126ed91906135e3565b92505081905550816002600083815260200190815260200160002060006101000a81548173ffffffffffffffffffffffffffffffffffffffff021916908373ffffffffffffffffffffffffffffffffffffffff160217905550808273ffffffffffffffffffffffffffffffffffffffff16600073ffffffffffffffffffffffffffffffffffffffff167fddf252ad1be2c89b69c2b068fc378daa952ba7f163c4a11628f55a4df523b3ef60405160405180910390a46127ae6000838361238a565b5050565b8280546127be9061307e565b90600052602060002090601f0160209004810192826127e05760008555612827565b82601f106127f957805160ff1916838001178555612827565b82800160010185558215612827579182015b8281111561282657825182559160200191906001019061280b565b5b5090506128349190612838565b5090565b5b80821115612851576000816000905550600101612839565b5090565b6000604051905090565b600080fd5b600080fd5b60007fffffffff0000000000000000000000000000000000000000000000000000000082169050919050565b61289e81612869565b81146128a957600080fd5b50565b6000813590506128bb81612895565b92915050565b6000602082840312156128d7576128d661285f565b5b60006128e5848285016128ac565b91505092915050565b60008115159050919050565b612903816128ee565b82525050565b600060208201905061291e60008301846128fa565b92915050565b600081519050919050565b600082825260208201905092915050565b60005b8381101561295e578082015181840152602081019050612943565b8381111561296d576000848401525b50505050565b6000601f19601f8301169050919050565b600061298f82612924565b612999818561292f565b93506129a9818560208601612940565b6129b281612973565b840191505092915050565b600060208201905081810360008301526129d78184612984565b905092915050565b6000819050919050565b6129f2816129df565b81146129fd57600080fd5b50565b600081359050612a0f816129e9565b92915050565b600060208284031215612a2b57612a2a61285f565b5b6000612a3984828501612a00565b91505092915050565b600073ffffffffffffffffffffffffffffffffffffffff82169050919050565b6000612a6d82612a42565b9050919050565b612a7d81612a62565b82525050565b6000602082019050612a986000830184612a74565b92915050565b612aa781612a62565b8114612ab257600080fd5b50565b600081359050612ac481612a9e565b92915050565b60008060408385031215612ae157612ae061285f565b5b6000612aef85828601612ab5565b9250506020612b0085828601612a00565b9150509250929050565b600080fd5b600080fd5b7f4e487b7100000000000000000000000000000000000000000000000000000000600052604160045260246000fd5b612b4c82612973565b810181811067ffffffffffffffff82111715612b6b57612b6a612b14565b5b80604052505050565b6000612b7e612855565b9050612b8a8282612b43565b919050565b600067ffffffffffffffff821115612baa57612ba9612b14565b5b612bb382612973565b9050602081019050919050565b82818337600083830152505050565b6000612be2612bdd84612b8f565b612b74565b905082815260208101848484011115612bfe57612bfd612b0f565b5b612c09848285612bc0565b509392505050565b600082601f830112612c2657612c25612b0a565b5b8135612c36848260208601612bcf565b91505092915050565b600060208284031215612c5557612c5461285f565b5b600082013567ffffffffffffffff811115612c7357612c72612864565b5b612c7f84828501612c11565b91505092915050565b612c91816129df565b82525050565b6000602082019050612cac6000830184612c88565b92915050565b600080600060608486031215612ccb57612cca61285f565b5b6000612cd986828701612ab5565b9350506020612cea86828701612ab5565b9250506040612cfb86828701612a00565b9150509250925092565b600060208284031215612d1b57612d1a61285f565b5b6000612d2984828501612ab5565b91505092915050565b600081519050919050565b600082825260208201905092915050565b6000819050602082019050919050565b612d67816129df565b82525050565b6000612d798383612d5e565b60208301905092915050565b6000602082019050919050565b6000612d9d82612d32565b612da78185612d3d565b9350612db283612d4e565b8060005b83811015612de3578151612dca8882612d6d565b9750612dd583612d85565b925050600181019050612db6565b5085935050505092915050565b60006020820190508181036000830152612e0a8184612d92565b905092915050565b612e1b816128ee565b8114612e2657600080fd5b50565b600081359050612e3881612e12565b92915050565b600060208284031215612e5457612e5361285f565b5b6000612e6284828501612e29565b91505092915050565b60008060408385031215612e8257612e8161285f565b5b6000612e9085828601612ab5565b9250506020612ea185828601612e29565b9150509250929050565b600067ffffffffffffffff821115612ec657612ec5612b14565b5b612ecf82612973565b9050602081019050919050565b6000612eef612eea84612eab565b612b74565b905082815260208101848484011115612f0b57612f0a612b0f565b5b612f16848285612bc0565b509392505050565b600082601f830112612f3357612f32612b0a565b5b8135612f43848260208601612edc565b91505092915050565b60008060008060808587031215612f6657612f6561285f565b5b6000612f7487828801612ab5565b9450506020612f8587828801612ab5565b9350506040612f9687828801612a00565b925050606085013567ffffffffffffffff811115612fb757612fb6612864565b5b612fc387828801612f1e565b91505092959194509250565b60008060408385031215612fe657612fe561285f565b5b6000612ff485828601612ab5565b925050602061300585828601612ab5565b9150509250929050565b600080604083850312156130265761302561285f565b5b600061303485828601612a00565b925050602061304585828601612ab5565b9150509250929050565b7f4e487b7100000000000000000000000000000000000000000000000000000000600052602260045260246000fd5b6000600282049050600182168061309657607f821691505b602082108114156130aa576130a961304f565b5b50919050565b7f4552433732313a20617070726f76616c20746f2063757272656e74206f776e6560008201527f7200000000000000000000000000000000000000000000000000000000000000602082015250565b600061310c60218361292f565b9150613117826130b0565b604082019050919050565b6000602082019050818103600083015261313b816130ff565b9050919050565b7f4552433732313a20617070726f76652063616c6c6572206973206e6f7420746f60008201527f6b656e206f776e6572206e6f7220617070726f76656420666f7220616c6c0000602082015250565b600061319e603e8361292f565b91506131a982613142565b604082019050919050565b600060208201905081810360008301526131cd81613191565b9050919050565b7f4552433732313a2063616c6c6572206973206e6f7420746f6b656e206f776e6560008201527f72206e6f7220617070726f766564000000000000000000000000000000000000602082015250565b6000613230602e8361292f565b915061323b826131d4565b604082019050919050565b6000602082019050818103600083015261325f81613223565b9050919050565b7f5265656e7472616e637947756172643a207265656e7472616e742063616c6c00600082015250565b600061329c601f8361292f565b91506132a782613266565b602082019050919050565b600060208201905081810360008301526132cb8161328f565b9050919050565b7f4e487b7100000000000000000000000000000000000000000000000000000000600052601160045260246000fd5b600061330c826129df565b9150613317836129df565b9250817fffffffffffffffffffffffffffffffffffffffffffffffffffffffffffffffff04831182151516156133505761334f6132d2565b5b828202905092915050565b7f4e487b7100000000000000000000000000000000000000000000000000000000600052601260045260246000fd5b6000613395826129df565b91506133a0836129df565b9250826133b0576133af61335b565b5b828204905092915050565b600081905092915050565b50565b60006133d66000836133bb565b91506133e1826133c6565b600082019050919050565b60006133f7826133c9565b9150819050919050565b7f4e487b7100000000000000000000000000000000000000000000000000000000600052603260045260246000fd5b600061343b826129df565b91507fffffffffffffffffffffffffffffffffffffffffffffffffffffffffffffffff82141561346e5761346d6132d2565b5b600182019050919050565b7f4552433732313a20696e76616c696420746f6b656e2049440000000000000000600082015250565b60006134af60188361292f565b91506134ba82613479565b602082019050919050565b600060208201905081810360008301526134de816134a2565b9050919050565b7f4552433732313a2061646472657373207a65726f206973206e6f74206120766160008201527f6c6964206f776e65720000000000000000000000000000000000000000000000602082015250565b600061354160298361292f565b915061354c826134e5565b604082019050919050565b6000602082019050818103600083015261357081613534565b9050919050565b7f496e76616c6964206d696e7420616d6f756e7421000000000000000000000000600082015250565b60006135ad60148361292f565b91506135b882613577565b602082019050919050565b600060208201905081810360008301526135dc816135a0565b9050919050565b60006135ee826129df565b91506135f9836129df565b9250827fffffffffffffffffffffffffffffffffffffffffffffffffffffffffffffffff0382111561362e5761362d6132d2565b5b828201905092915050565b7f4d617820737570706c7920657863656564656421000000000000000000000000600082015250565b600061366f60148361292f565b915061367a82613639565b602082019050919050565b6000602082019050818103600083015261369e81613662565b9050919050565b7f546865206d696e74696e67206973207061757365642100000000000000000000600082015250565b60006136db60168361292f565b91506136e6826136a5565b602082019050919050565b6000602082019050818103600083015261370a816136ce565b9050919050565b7f496e73756666696369656e742066756e64732100000000000000000000000000600082015250565b600061374760138361292f565b915061375282613711565b602082019050919050565b600060208201905081810360008301526137768161373a565b9050919050565b7f4d61782077616c6c657420616d6f756e74207265616368656400000000000000600082015250565b60006137b360198361292f565b91506137be8261377d565b602082019050919050565b600060208201905081810360008301526137e2816137a6565b9050919050565b7f4552433732314d657461646174613a2055524920717565727920666f72206e6f60008201527f6e6578697374656e7420746f6b656e0000000000000000000000000000000000602082015250565b6000613845602f8361292f565b9150613850826137e9565b604082019050919050565b6000602082019050818103600083015261387481613838565b9050919050565b600081905092915050565b600061389182612924565b61389b818561387b565b93506138ab818560208601612940565b80840191505092915050565b60008190508160005260206000209050919050565b600081546138d98161307e565b6138e3818661387b565b945060018216600081146138fe576001811461390f57613942565b60ff19831686528186019350613942565b613918856138b7565b60005b8381101561393a5781548189015260018201915060208101905061391b565b838801955050505b50505092915050565b60006139578286613886565b91506139638285613886565b915061396f82846138cc565b9150819050949350505050565b7f4f776e61626c653a206e6577206f776e657220697320746865207a65726f206160008201527f6464726573730000000000000000000000000000000000000000000000000000602082015250565b60006139d860268361292f565b91506139e38261397c565b604082019050919050565b60006020820190508181036000830152613a07816139cb565b9050919050565b7f4f776e61626c653a2063616c6c6572206973206e6f7420746865206f776e6572600082015250565b6000613a4460208361292f565b9150613a4f82613a0e565b602082019050919050565b60006020820190508181036000830152613a7381613a37565b9050919050565b7f4552433732313a207472616e736665722066726f6d20696e636f72726563742060008201527f6f776e6572000000000000000000000000000000000000000000000000000000602082015250565b6000613ad660258361292f565b9150613ae182613a7a565b604082019050919050565b60006020820190508181036000830152613b0581613ac9565b9050919050565b7f4552433732313a207472616e7366657220746f20746865207a65726f2061646460008201527f7265737300000000000000000000000000000000000000000000000000000000602082015250565b6000613b6860248361292f565b9150613b7382613b0c565b604082019050919050565b60006020820190508181036000830152613b9781613b5b565b9050919050565b6000613ba9826129df565b9150613bb4836129df565b925082821015613bc757613bc66132d2565b5b828203905092915050565b7f4552433732313a20617070726f766520746f2063616c6c657200000000000000600082015250565b6000613c0860198361292f565b9150613c1382613bd2565b602082019050919050565b60006020820190508181036000830152613c3781613bfb565b9050919050565b7f4552433732313a207472616e7366657220746f206e6f6e20455243373231526560008201527f63656976657220696d706c656d656e7465720000000000000000000000000000602082015250565b6000613c9a60328361292f565b9150613ca582613c3e565b604082019050919050565b60006020820190508181036000830152613cc981613c8d565b9050919050565b6000613cdb826129df565b9150613ce6836129df565b925082613cf657613cf561335b565b5b828206905092915050565b600081519050919050565b600082825260208201905092915050565b6000613d2882613d01565b613d328185613d0c565b9350613d42818560208601612940565b613d4b81612973565b840191505092915050565b6000608082019050613d6b6000830187612a74565b613d786020830186612a74565b613d856040830185612c88565b8181036060830152613d978184613d1d565b905095945050505050565b600081519050613db181612895565b92915050565b600060208284031215613dcd57613dcc61285f565b5b6000613ddb84828501613da2565b91505092915050565b7f4552433732313a206d696e7420746f20746865207a65726f2061646472657373600082015250565b6000613e1a60208361292f565b9150613e2582613de4565b602082019050919050565b60006020820190508181036000830152613e4981613e0d565b9050919050565b7f4552433732313a20746f6b656e20616c7265616479206d696e74656400000000600082015250565b6000613e86601c8361292f565b9150613e9182613e50565b602082019050919050565b60006020820190508181036000830152613eb581613e79565b905091905056fea264697066735822122031ed4086ecac02adfb70075a221a1c90407f66dd465c5f8e2a13cf464bdc8f5d64736f6c63430008090033",
  "linkReferences": {},
  "deployedLinkReferences": {}
}